:020000040800F2
:1000000068330020DD0100085F400008FD32000871
:100010005D4000082D0D0008914D00080000000013
:100020000000000000000000000000004501000882
:100030004B0E00080000000089010008054600087A
:10004000F7010008F7010008F7010008F7010008B0
:10005000F7010008F7010008F7010008F7010008A0
:100060006F0E0008F7010008F7010008E50D000811
:10007000F7010008F10D0008F7010008FD0D000868
:10008000090E0008150E0008F7010008F701000826
:10009000F7010008F7010008F7010008F701000860
:1000A000F7010008F7010008F7010008F701000850
:1000B000F7010008F7010008F7010008F701000840
:1000C000F7010008F7010008F7010008F701000830
:1000D000F7010008094D0008214D0008394D0008BE
:1000E000F7010008F7010008F7010008F701000810
:1000F000F7010008F7010008F7010008F701000800
:10010000F7010008F7010008F7010008F7010008EF
:10011000F7010008F7010008F7010008DD460008B4
:10012000F7010008F7010008F7010008F7010008CF
:10013000DFF80CD000F0E8FC00480047F958000850
:1001400068330020224B19680868B0E8F00F80F38C
:100150000988BFF36F8F4FF0000080F311884EF0D5
:100160000D0E70470000000006480068006880F32C
:10017000088862B661B6BFF34F8FBFF36F8F00DFA1
:1001800000BF00BF08ED00E0EFF30980BFF36F8F01
:100190000F4B1A6820E9F00F106008B54FF05000BF
:1001A00080F31188BFF34F8FBFF36F8F06F01EFAF5
:1001B0004FF0000080F31188BDE808401968086816
:1001C000B0E8F00F80F30988BFF36F8F704700BF6E
:1001D00030000020EFF3058070470000064880479C
:1001E00006480047FEE7FEE7FEE7FEE7FEE7FEE71C
:1001F000FEE7FEE7FEE7FEE795460008310100084E
:10020000202A04DB203A21FA02F00021704721FA6B
:1002100002F3D040C2F120029140084319467047D2
:1002200040EA01039B0703D009E008C9121F08C078
:10023000042AFAD203E011F8013B00F8013B521EF8
:10024000F9D27047D2B201E000F8012B491EFBD26F
:1002500070470022F6E710B513460A4604461946D1
:10026000FFF7F0FF204610BD30B505462A460B4685
:1002700012F8010B13F8014B08B1A042F8D01CB1E1
:10028000002802D06D1CF1E7284630BD421C10F852
:10029000011B0029FBD1801A7047F0B480EA0102EB
:1002A000D40F4200B2EB410F02D20246084611467B
:1002B0004A0042D0C30DDDB2C1F3C752AD1A202DA2
:1002C00035DAC1F3160141F4000204B15242C5F11E
:1002D000200602FA06F12A411044B3EBD05F23D086
:1002E000C4B1012DA0EBC35009DCF0BC4FF00042BB
:1002F00002EAC352DBB200F5000000F04ABB400046
:1003000000F1807000EBC350A0F1807040EAD17022
:10031000490009E0490841EAC071A0EBC35000F56B
:100320000000400800EBC350F0BC00F029BB614264
:10033000012202EB4101001BF6E7F0BC704781F09F
:100340000041AAE780F00040A7E780EA010210B56B
:1003500002F00043400022D04A001FD0010E01EB02
:100360001261C0F35600C2F3560240F4000042F49A
:100370000002A0FB022000047F39140400D0401CBE
:1003800050EA124001D44000491EC2B20C0604EBF0
:10039000D010401C4008802A02D003E0002010BD8D
:1003A00020F00100002900DA0020184310BD30B40D
:1003B00080EA010202F0004530F0004221F00040E6
:1003C00013D090B1C30DD40DC2F31601C0F31600C3
:1003D000E41A41F4000140F400027D34914201D35B
:1003E000641C00E04900002C02DA30BC0020704799
:1003F0004FF400000023914201D3891A03434008BF
:100400004FEA4101F7D151B1914202D14FF0004181
:1004100005E002D24FF0010101E06FF0010103EBB2
:10042000C450284430BC00F0ABBA420005D0C0F341
:10043000C7525242914201DC0020704700EBC1508C
:1004400070472DE9FE4F804681EA0300C00F0C463D
:10045000009021F0004123F00045B8EB0200A941D3
:1004600005D24046214690461C460B46024623F0E4
:100470000040104347D0270DC7F30A00C3F30A51C9
:100480000290401A019040286BDAC3F3130040F445
:10049000801B0098924620B10023D2EB030A63EB45
:1004A0000B0B01985946C0F14002504600F047FA44
:1004B00006460D4650465946019A00F04FFA10EB99
:1004C00008006141002487EA115284EAE7731A4365
:1004D00040D0009A62B3019A012A4FEA075215DC14
:1004E000001B61EB02014FF0004202EA0752CDE926
:1004F0000042001C41F5801132462B4600F086FA7E
:1005000003B0BDE8F08F40462146F9E7001B61EBE0
:100510000201001C41F5801300185B412018A2F570
:10052000001747EB030140EAD570B6196D4111E0A1
:100530006D084FEA360645EAC0754FEA0752001BC0
:1005400061EB0201001C41F5801149084FEA3000BF
:100550000019514132462B4603B0BDE8F04F00F080
:1005600046BA0098012240000023D0EB020263EB60
:10057000E073009821464FEAE074B8EB000061EBAD
:100580000401E9E783F000435BE781F0004158E7AD
:100590002DE9FE4F81EA030404F0004421F00041FC
:1005A00000944FF0000B23F0004350EA01045ED0AA
:1005B00052EA03045BD0C3F30A54C1F30A552C4436
:1005C000A4F2F3340194A0FB0254C1F3130141F4EB
:1005D0008011C3F3130343F4801301FB024400FBB7
:1005E000034E840A970A44EA815447EA8357A4FBDE
:1005F000076802958D0A05FB07854FEA932C04FBDB
:100600000C542705029D4FEA065847EA1637B5EB0A
:1006100008056EEB070C870E920E47EA811742EA37
:100620008312A7FB0201B6EB0B0164EB00042B0D58
:1006300043EA0C335E1844EB1C50DA465146E7FBA4
:100640000201C5F313044FEA0B3343EA14534FEA94
:100650000432019C43EA0603A4F10C040294009CBA
:10066000CDE900B400F0D2F903B0BDE8F08F00206E
:100670000146F9E72DE9F04D81EA030404F0004B4F
:1006800021F0004514464FF0000A23F0004150EAE3
:10069000050220D054EA01021DD0C5F30A570246D4
:1006A000C5F31303C1F31300C1F30A5640F48015D8
:1006B00043F48013A7EB0608101BD64608F2FD385A
:1006C00073EB050002D308F1010801E092185B41C9
:1006D000B8F1000F03DA00200146BDE8F08D0020DC
:1006E0004FF48011064684460EE0171B73EB050796
:1006F00005D3121B63EB050306434CEA010C4908C2
:100700004FEA300092185B4150EA0107EDD152EAFE
:10071000030012D082EA040083EA0501084305D0F1
:10072000101BAB4106D20122002306E000224FF04D
:10073000004302E06FF0010253101AEB06004CEB8D
:10074000085110EB0A0041EB0B01BDE8F04D00F041
:100750004EB9C10F80EAE0700844CA079623002111
:1007600000F017B996230022114600F012B90EB519
:10077000C10F80EAE0700844CA07002140F2334309
:100780008DE80E000A460B4600F040F903B000BDAC
:1007900000F0004220F00040C10DC0F3160040F40C
:1007A00000007F2901DA00207047962903DCC1F19F
:1007B0009601C84001E096398840002AF4D04042B2
:1007C000704720F00040C10DC0F3160040F4000057
:1007D0007F2901DA00207047962903DCC1F19601D8
:1007E000C840704796398840704770B5C1F30A52C7
:1007F00001F000450024C1F3130140F2FF3341F43E
:1008000080119A4201DA002070BD40F233439A42CF
:10081000A2F2334203DC5242FFF7F2FC00E09040C8
:100820002C43F1D0404270BD00F0004230F0004057
:100830000AD0C10D01F56071C0F3160042EA015102
:10084000C20840071143704700200146704701F07D
:10085000004330B421F0004150EA010206D00A0DF5
:10086000A2F56072C1F31301002A02DC30BC002043
:100870007047440F44EAC104C100E01830BC00EBEB
:10088000C25000F07DB80000002801DBC0F100403C
:10089000002901DBC1F1004181427047002801DBE2
:1008A000C0F10040002901DBC1F1004188427047DE
:1008B00030B50B46014600202022012409E021FA30
:1008C00002F59D4205D303FA02F5491B04FA02F52D
:1008D0002844151EA2F10102F1DC30BD2DE9F05FC4
:1008E0000546002092469B4688460646814640249F
:1008F0001BE02846414647462246FFF781FC534607
:100900005A46C01A914110D311461846224600F0AB
:1009100016F82D1A67EB01084F46224601200021E8
:1009200000F00DF817EB00094E41201EA4F1010460
:10093000DFDC484631462A464346BDE8F09F202A80
:1009400004DB203A00FA02F1002070479140C2F126
:10095000200320FA03F3194390407047202A06DB56
:10096000CB17203A41FA02F043EAE07306E041FA7D
:1009700002F3D040C2F1200291400843194670476B
:100980000029A8BF7047401C490008BF20F00100A3
:10099000704710B4B0FA80FC00FA0CF050EA010481
:1009A00004BF10BC704749B1CCF1200421FA04F413
:1009B00011FA0CF118BF012121430843A3EB0C01EC
:1009C000CB1D4FEA00614FEA102042BF002010BC4F
:1009D000704700EBC35010440029A4BF10BC7047FF
:1009E000401C490008BF20F0010010BC704710B542
:1009F000141E73F1000408DA401C41F10001921842
:100A00005B411A4301D120F0010010BD2DE9F04DEA
:100A100092469B4611B1B1FA81F202E0B0FA80F23F
:100A200020329046FFF78BFF04460F4640EA0A004B
:100A300041EA0B0153465A46084313D0114653EA84
:100A4000010019D0C8F140025046FFF7D9FB054616
:100A50000E46504659464246FFF771FF084305D0FF
:100A6000012004E020463946BDE8F08D0020054312
:100A700046EAE0762C4337430A986305E40AA0EB84
:100A800008000022FD0A44EA47540A3002D500203B
:100A90000146E9E7010510196941DDE9084500193A
:100AA0006941BDE8F04DA2E7C1F30A52C1F3130159
:100AB00040F2FF3341F480119A4202DA00200146ED
:100AC000704740F233439A42A2F2334202DC524270
:100AD000FFF796BBFFF733BF30B5041E71F100047A
:100AE00004DB4FF00044404264EB0101141E73F13B
:100AF000000405DB1C464FF00043524263EB040345
:100B0000994208BF904230BD064C074D06E0E068B0
:100B100040F0010394E8070098471034AC42F6D344
:100B2000FFF70AFBB06E0008D06E000870B58C1895
:100B300010F8015B15F0070301D110F8013B2A11F1
:100B400006D110F8012B03E010F8016B01F8016BDE
:100B50005B1EF9D12B0705D40023521E0DD401F8DA
:100B6000013BFAE710F8013BCB1A921C03E013F8A3
:100B7000015B01F8015B521EF9D5A142D8D30020D8
:100B800070BD000070B5044600688168C943C9079C
:100B90001CD1816821F00101816000F081FF0546D0
:100BA0000FE000BF00F07CFF401B022809D9A06ABB
:100BB00040F01000A062E06A40F00100E062012015
:100BC00070BD20688068C043C007EBD0002070BDB6
:100BD00010B50146406A826A12F0500F05D0006AD3
:100BE000026BBDE8104008461047816A41F400716D
:100BF000816201688968C1F3424107290CD1C1684B
:100C000051B9816A21F480718162816AC90403D477
:100C1000816A41F00101816200F05CFA10BD10B5FB
:100C2000406A816A41F040018162C16A41F0040179
:100C3000C16200F051FA10BD10B5406A00F04BFAE5
:100C400010BD0000F8B500260446009600688168D3
:100C5000C943C90728D0816841F001018160134868
:100C600013490068B0FBF1F000E0401E009000283E
:100C7000FBD100F015FF054611E000BF00F010FFAA
:100C8000401B02280BD9A06A40F01000A062E06A65
:100C900040F00100E06284F824600120F8BD206883
:100CA0008068C043C007E9D10020F8BD2C000020B7
:100CB00040420F0004490888052801D3052000E0C0
:100CC000401C0880704700000C02002010B503F0A3
:100CD00023FA00F011F803F01FFA03F0ADFB02F065
:100CE000B9FE02F0D9FA03F02FFB03F0D3F9BDE807
:100CF000104003F075BC000070B5002408220849BC
:100D0000084800F0C3FA064D074E286846F824004C
:100D1000012004F0ABFD641C652CF6DB70BD000007
:100D2000B00000207C02002004270020FEE7000025
:100D300001490020088070470C020020284910B5A6
:100D4000264A0B78D0545B1CD8B208701478002364
:100D5000552C41D10B2840D35078503809283BD22C
:100D6000DFE800F0050B11171D23292F350052F87D
:100D7000020F88605068C8602EE052F8020F0861C8
:100D80005068486128E052F8020F88615068C861D5
:100D900022E052F8020F0862506848621CE052F8E4
:100DA000020F88625068C86216E052F8020F0863AA
:100DB0005068486310E052F8020F88635068C863B7
:100DC0000AE052F8020F08645068486404E052F8E0
:100DD000020F88645068C8640B7010BDBC290020E5
:100DE000C8000020014800F087BB0000AC020020D2
:100DF000014800F081BB000090050020014800F090
:100E00007BBB0000C4040020014800F075BB00005B
:100E100008050020014800F06FBB00004C050020D1
:100E200030B590F840500124AC40C56B6C6004684C
:100E300063604368102B036803D099600068C26048
:100E400030BD9A600068C16030BD704700231A460B
:100E5000C0F8281000EB8201496840F82210521CAB
:100E60000B440A2AF6DB0A20B3FBF0F0704704209B
:100E700000F00CBD704700000D480D4910B5083951
:100E800040684860FFF76EFC0A49FFF75EFA6FF0B2
:100E90000B01FFF7CAFA0849FFF789FAFFF7C4FC0C
:100EA000064A074BFFF7E6FBBDE81040FFF7CFBC53
:100EB000B000002033335340000048427B14AE475B
:100EC000E17A843F2DE9F041054603F0D9F9164C4B
:100ED000A068FFF776FC01461448FFF7B7FFFFF75D
:100EE00041FC61680F46FFF72AFA114E3146FFF7C1
:100EF0002CFA1049FFF75BFAE06010F1FF4F01D3C5
:100F00000020E060E8603846FFF742FCA860A06877
:100F1000FFF73EFC68602069FFF71BFC3146FFF7D6
:100F200046FA2860BDE8F08118010020C82B002097
:100F30000000C8420000C442174810B5154A0368B3
:100F400000210846C2F8903102EB80035B6842F84A
:100F50002030401C19446428F6DB6420B1FBF0F01B
:100F60000D4908390860FFF7FDFB0C49FFF7EDF963
:100F70006FF00B01FFF759FAFFF756FC084A094BCF
:100F8000FFF706FB084A094BFFF702FBBDE81040DC
:100F9000FFF75DBC04270020B0000020333353402E
:100FA000640F1617A1A215408638D6C56D34F03FE0
:100FB00010B50446FFF7C0FF6060FFF75DFF2060DB
:100FC00010BD000003480088052801D300207047A9
:100FD000012070470C020020F8B50024009490F81E
:100FE00024202546012A12D0012280F824204A68B4
:100FF0001F23072A0DD20668776B521E02EB82026E
:1010000093409F430B6893401F43776319E002208E
:10101000F8BD06680D2A0AD2376BD21F02EB820296
:1010200093409F430B6893401F43376309E0F76A7F
:101030000D3A02EB820293409F430B6893401F439B
:10104000F7620A68072306680A2A0AD3F7680A3A89
:1010500002EB420293409F438B6893401F43F7602B
:1010600008E0376902EB420293409F438B6893404C
:101070001F4337610A68102A01D0112A20D1124B70
:1010800002689A4217D193681B0219D4936843F4FB
:10109000000393600968102912D10C490C4A0968B1
:1010A000B1FBF2F101EB8101490000E0491E009122
:1010B0000029FBD104E0816A41F020018162012412
:1010C00080F824502046F8BD002401402C00002068
:1010D00040420F0070477047704700002DE9F04113
:1010E00004004FF0000514D0A06A002628B9E6627B
:1010F00084F82460204600F083F82046FFF742FD84
:10110000A16A01F01001014304D0A06A40F0100070
:10111000A0626BE0A16A21F4885141F00201A16252
:10112000334923688B42E16904D1B1F5402F01D1E5
:101130004FF40021E7684FF4807C41EA4702616880
:101140000A43A168614509D0012907D05FF0000179
:10115000D4F814E0BEF1010F02D00AE06146F7E7CF
:10116000C7B1A76A47F02007A762E76A47F00107FF
:10117000E7625F6827F469470F435F6023689968F7
:101180001C4F394011439960A16861450BD001297A
:1011900009D00CE0DFF860E0A7690EEB47370F439A
:1011A00047F40061E5E7218A0D05A5F58015216862
:1011B000CB6A23F470032B43CB62216889680F4B01
:1011C0001940914208D1E662A16A21F0020141F082
:1011D0000101A162BDE8F081A06A20F0020040F0A8
:1011E0001000A062E06A40F00100E0620120F1E737
:1011F000003C0140FDF7E1FF00E0FFFFFE0E1FFF96
:1012000070B586B0002506460095019502950395B8
:101210000068194988422DD11849886940F4007046
:101220008861886900F400700490886940F00400C7
:1012300088618869694600F00400049003200090EA
:1012400001900F4800F02EFB0F4C0E48C4E900053A
:101250008020C4E90250800020618000606120206D
:10126000C4E90605204600F06BFA08B1FFF702FE5C
:101270003462666206B070BD002401400010024076
:101280000008014008000240AC0200202DE9F047B0
:10129000894604463B4900683B4F0E1D90468842F4
:1012A00001D0B84207D1306810F4702F03D0012567
:1012B0002846BDE8F08794F8240001280CD00120CE
:1012C00084F824002046FFF7BDFC05004FF0000025
:1012D00004D084F82400EBE70220EAE7A16A40F694
:1012E0000162914341F48071A1622168B94218D131
:1012F000326812F4702F14D0A16A41F48011A162F7
:101300003168490505D5A16A21F4005141F48051A5
:10131000A162A16AC9040AD5E16A21F00601E1626D
:1013200006E0A26A22F48012A2624968E9E7E0625C
:1013300084F82400216A15488862216A1448C8622A
:10134000216A1448086321686FF002000860206871
:10135000816841F480718160216843464A464C317E
:10136000206A00F02BFA20688168C1F34241072906
:10137000816803D041F48011816099E741F4A001B4
:10138000FAE700000024014000280140D10B0008CA
:10139000390C00081F0C000801680A6822F00E02D0
:1013A0000A6001680A6822F001020A6090F8402091
:1013B000C36B012101FA02F25A6080F8211000216A
:1013C00080F82010084670472DE9F05F90F8211052
:1013D0000024022903D004218163012485E00168EF
:1013E0000A6822F00E020A6001680A6822F001020F
:1013F0000A603F4E3E4FB215DFF8F4C0DFF8F090C0
:10140000DFF8ECA0DFF8E8B0DFF8E4E00168783F4F
:1014100013011502ACF1640CA9F15009AAF13C0AC0
:10142000ABF1280BAEF1140E4FF48018B14227D95E
:10143000B9420ED0614512D049451DD0514518D052
:10144000594518D0714501D1424615E0294EB142A7
:1014500001D1012210E0274E1436B14201D11022F1
:101460000AE0244E2836B14206D0224A3C3291424C
:1014700001D11A4600E02A461E49091F0A602BE0E6
:10148000B94213D0614517D0494522D051451DD0EE
:1014900059451DD0714501D142461AE0B14202D1F1
:1014A0004FF0807215E0134EB14201D1012210E0DD
:1014B000104E1436B14201D110220AE00D4E2836EA
:1014C000B14206D00B4A3C32914201D11A4600E0AB
:1014D0002A46074980394A60012180F821100021FD
:1014E00080F82010416B01B188472046BDE8F09F8D
:1014F00080000240080402402DE9F05FC16B0A68D9
:1015000001680B68046C4FF0040808FA04F8844D75
:10151000844E854FDFF814C2DFF81492DFF814A26E
:10152000DFF814B2DFF814E218EA020F65D05FEAC0
:10153000437862D50A68920603D40A6822F004024E
:101540000A60DFF8F0814FF48062016808F1140846
:1015500013011402414524D9A9420DD0B1420FD044
:10156000B9421AD0614515D0494515D0514501D130
:10157000120312E0594501D104220EE0714501D158
:1015800040220AE06D4D1435A94206D06B4A28323C
:10159000914201D11A4600E022466749091F0A60BC
:1015A00029E0A94213D0B14215D0B94220D06145FB
:1015B0001BD049451BD0514502D14FF4800217E0A2
:1015C000414502D14FF0806212E0594501D1042219
:1015D0000EE0714501D140220AE0584D1435A94270
:1015E00006D0564A2832914201D11A4600E02246DE
:1015F0004B4908394A60C16A71E04FF0020808FAA5
:1016000004F818EA020F70D05FEA83786DD50A6893
:10161000920606D40A6822F00A020A60012180F8C4
:101620002110DFF810814FF40072016808F11408EE
:1016300013011402414524D9A9420DD0B1420FD063
:10164000B9421AD0614515D0494515D0514501D14F
:10165000120312E0594501D102220EE0714501D179
:1016600020220AE0354D1435A94206D0334A2832EB
:10167000914201D11A4600E022462F49091F0A6013
:1016800029E0A94213D0B14215D0B94220D061451A
:101690001BD049451BD0514502D14FF4001217E031
:1016A000414502D14FF0007212E0594501D10222AA
:1016B0000EE0714501D120220AE0204D1435A942E7
:1016C00006D01E4A2832914201D11A4600E0224635
:1016D000134908394A60002180F82010816A0029E6
:1016E0001CD0BDE8F05F0847FFE70825A54015427C
:1016F00014D01A0712D50A6822F00E020A6090F878
:101700004020C36B012101FA02F25A60816380F824
:101710002110002180F82010016BE0E7BDE8F09F68
:10172000080002401C000240300002404400024019
:10173000580002406C000240080402401C040240B1
:1017400030B560B11A4B026814219A4209D2194B84
:101750001344B3FBF1F18900016417490AE0012049
:1017600030BD134B5B421344B3FBF1F189000164BC
:101770000F490839C163022180F82110136843F62C
:10178000F0718B43F0E901142143D0E902452C4369
:101790002143046921434469214384692143194356
:1017A000116000214163012242770177084630BD74
:1017B00008040240F8FFFDBF0000024070B5044677
:1017C00090F82000002501280CD0012084F820008A
:1017D00094F821600020012E06D084F82000022514
:1017E000284670BD022070BD022684F82160A063E7
:1017F0002068066826F0010606602046FFF710FB09
:10180000E06A00282068016802D041F00E0106E07D
:1018100021F0040101602068016841F00A010160C3
:101820002068016841F001010160D9E770B5044604
:1018300000F036F90546601C02D0044800780444E4
:1018400000F02EF9401BA042FAD370BD200000200A
:1018500070B50C4D0421284600F018F9002809D174
:10186000094C207838B100220821284600F013F9ED
:101870000020207070BD01220821284600F00BF9DD
:101880000120F6E70010014090000020044910B547
:101890000A68024202D00860FFF7DAFF10BD0000BC
:1018A000140401402DE9F84FDFF8B8A100220AF135
:1018B000040B144601274FF00F090BF1040E00BF73
:1018C0000B6807FA04F52B40AB4274D1DFF898C1DE
:1018D0004E68A6EB0C0866452BD00DDC032E34D0E9
:1018E00005DC36B3012E19D0022E2FD11BE0112EAC
:1018F00016D0122E2AD119E0B8F5881F19D006DCAF
:10190000B8F5803F15D0B8F5801F1FD111E0B8F5AC
:10191000001F0ED0B8F5041F18D10AE0CA6815E000
:10192000CA68121D12E0CA6808320FE0CA680C3299
:101930000CE08A682AB1012A4FF0080203D0456101
:1019400004E0042202E0056100E00022FF2B01D840
:10195000064601E000F104064FEA840501D9A5F12D
:101960002005D6F800C009FA05F82CEA080C02FA9E
:1019700005F54CEA050CC6F800C04D68ED006AD5C7
:101980003A4DAE6946F00106AE61AD6924F003063A
:1019900005F001050095364D06EB050CDCF8085006
:1019A000A6074FEA167809FA08F6B543314EB04259
:1019B00002D100261AE04EE02F4EB04201D101269E
:1019C00014E02E4EB04201D102260FE02C4EB04260
:1019D00001D103260AE02B4EB04201D1042605E0D6
:1019E000294EB04201D1052600E0062606FA08F687
:1019F0002E43CCF808604D68DAF80060ED035546D8
:101A000001D51E4300E09E432E604D68AD0305D511
:101A1000DBF800601E43CBF8006004E0DBF8005008
:101A20009D43CBF800504D68DEF80060ED0275462E
:101A300001D51E4300E09E432E604D68AD0205D5E2
:101A4000084D0C352E681E432E6004E0054E0C3602
:101A500035689D433560641C102CFFF431AFBDE840
:101A6000F88F000000040140000011100010024037
:101A70000000014000080140000C0140001001403E
:101A80000014014000180140001C0140806808401B
:101A900000D0012070470AB1016170470904FBE7DB
:101AA00001488068704700002000002070B50400E5
:101AB0001BD094F83D00002520B984F83C50204606
:101AC00000F038FA242084F83D002068016821F0F5
:101AD0000101016000F08AFC404A6168914201D82E
:101AE0003F4900E03F49884201D2012070BD3E4994
:101AF0002368B0FBF1F159606368934206D94FF453
:101B0000967359434FF47A73B1FBF3F12368491C80
:101B100019626168914210D84900401EB0FBF1F291
:101B2000521CC2F30B02042A01D2042022E0B0FBB3
:101B3000F1F0401CC0F30B001CE0A368CBB301EB39
:101B4000C10202EB0116421EB2FBF6F2521C42F435
:101B50008042120536D06BB301EBC10202EB0111DA
:101B6000401EB0FBF1F0401CC0F30B0040F480407D
:101B700040F400402168C861D4E9070108432168A6
:101B80000860D4E90310084321688860D4E905019E
:101B900008432168C8602068016841F001010160C4
:101BA0002564202084F83D00256384F83E50002001
:101BB00070BD00E008E001EB4106421EB2FBF6F208
:101BC000521CC6E70120D5E701EB4101401EB0FBE6
:101BD000F1F0401CC0F30B00CAE70000A086010032
:101BE00080841E0000093D0040420F002DE9F84F9F
:101BF0001F4690468A460446DDF82890FFF750FFBE
:101C0000054694F83D0020287ED119230122784909
:101C10002046009501F097FC0028F5D194F83C008F
:101C2000012871D0012084F83C0020680168C907B0
:101C300003D1016841F0010101602068016821F4CD
:101C400000610160222084F83D00102084F83E00ED
:101C500000262664C4F8248067856648E062608DAB
:101C600020852B464A465146204601F08BFB28B181
:101C7000206C84F83C60042850D073E0208D5E4FC7
:101C800068B1012814D00228206801681ED041F4F0
:101C90008061016020684169806900909AE0206855
:101CA000416981690091016841F40071016091E02E
:101CB0002068016821F48061016072B62068416982
:101CC00081690091016841F400710AE041F400610A
:101CD000016072B62068416981690091016821F450
:101CE0008061016062B675E0032850D801280CD0ED
:101CF00002284B464FF0000239462046009512D08C
:101D000001F021FC70BB13E070E02A4649462046F2
:101D100001F08EFC28B1206C202823D00120BDE8E2
:101D2000F88F20684BE001F00EFCD8B972B61BE0CA
:101D30002068016821F48061016072B62068016941
:101D4000606A421C62620170208D401E2085608D99
:101D5000401E60854B46002239462046009501F022
:101D6000F2FB08B10320DAE72068016841F4007152
:101D7000016020680169606A421C62620170208D06
:101D8000401E2085608D401E608562B6C9E72A46E8
:101D90004946204601F04CFC0028BCD1206801696E
:101DA000606A421C62620170208D401E2085608D39
:101DB000401E608520684169C94349070AD401690A
:101DC000606A421C62620170208D401E2085608D19
:101DD000401E6085208D002886D1202084F83D009B
:101DE00084F83E6084F83C60002098E7022096E783
:101DF000020010000000FFFF040001002DE9F84F71
:101E00001F4690468A460446DDF82890FFF748FEB4
:101E1000064694F83D0020287ED11923012243492B
:101E20002046009601F08FFB00287DD194F83C00FD
:101E3000012879D0012084F83C0020680168C90796
:101E400003D1016841F0010101602068016821F4BB
:101E500000610160212084F83D00102084F83E00DC
:101E600000252564C4F8248067853148E062608DD0
:101E7000208533464A465146204601F0F3FA28B100
:101E8000206C84F83C5004284CD00DE02068416957
:101E90008069009030E032464946204601F0F9FB67
:101EA00028B1206C042838D00320BDE8F88F606A80
:101EB000411C6162216800780861608D401E608568
:101EC000208D401E80B2208521684A69D243520786
:101ED0000BD450B1606A421C626200780861608D68
:101EE000401E6085208D401E208532464946204692
:101EF00001F002FB0028D4D1208D0028CBD154F86A
:101F00003D0B016841F400710160202004F81E09B6
:101F1000E57765770020C8E706E02068016841F4AE
:101F2000007101600120C0E70220BEE7020010003E
:101F30000000FFFF10B586B00021009101910291D1
:101F400003910068104988421BD1104CA06940F0F1
:101F50000800A061A069694600F0080004904FF4F1
:101F60004060009012200190032003900848FFF782
:101F700099FCE06940F48000E061E06900F48000D1
:101F8000049006B010BD0000005800400010024050
:101F9000000C01400248816802781144816070475A
:101FA00020000020074810B5016841F010010160D1
:101FB000032000F093F8002000F006F800F03EF84F
:101FC000002010BD0020024000B5014687B000226D
:101FD000372000F063F8372000F054F81348C16947
:101FE00041F02001C161C06905A900F02000069000
:101FF000684600F0DBF900F0F9F90D494000B0FB4C
:10200000F1F10D480B4A491E0260416040F2E7328F
:102010000021C0E90321816000F017FC10B101200C
:1020200007B000BD044800F03FFCF9E70010024093
:1020300040420F0000140040D40500200F4808B5AE
:10204000816941F001018161816901F00101009123
:10205000C16941F08051C161C069002200F0805027
:1020600000900F21901E00F019F80548416821F0FA
:10207000E06141F00071416008BD000000100240C5
:102080000000014000F01F02012191404009800042
:1020900000F1E020C0F8001170470000F0B40E4BD2
:1020A0001B680C46C3F30223C3F10705042D00D9B6
:1020B0000425191D072901D2002300E0DB1E01269B
:1020C00006FA05F1491E214099409E40761E1640B1
:1020D0003143F0BC01F0C4BF0CED00E0064900F054
:1020E000070208684FF6FF03184040EA0220034A3F
:1020F00010430860704700000CED00E00000FA0596
:10210000F8B5054600680168C943C9061FD40168CF
:1021100040680090284600F009FE686B006840683F
:102120000B4CC0F5807081B2618001202070201DB1
:1021300002F030F84FF480763146201DFEF789F822
:102140003246211D2846BDE8F84000F0F9BFF8BD31
:10215000522D00202DE9F84305460078354CC00784
:1021600054D0E0690026C00008D4E06940F08050F7
:10217000E061E069012600F0805000902E4801687F
:10218000C90512D40168804641F480710160FFF7EF
:1021900087FC074605E000BFFFF782FCC01B6428F0
:1021A00023D8D8F80000C005F6D5206A10F4407096
:1021B00021D0A98801F4407181421CD0206A1F49B6
:1021C000012220F440700A6000220A602062C007E9
:1021D00011D0FFF765FC074641F2883808E000BFE0
:1021E000FFF75EFCC11B414502D90320BDE8F8831F
:1021F000206A8007F4D5206A696820F4407008439B
:1022000020621EB1E06920F08050E06128788007EC
:1022100005D56068A96820F44040084360602878CC
:10222000C00605D56068696920F4800008436060D5
:102230000020DBE7001002400070004040044242F2
:102240002DE9F047DFF8548105460E46D8F8000026
:1022500000F00700B0420CD2D8F8001021F00701BE
:102260003143C8F80010D8F8000000F00700B04271
:102270006FD128684A4C810712D5400703D56068A2
:1022800040F4E06060602878000703D5606840F49F
:10229000605060606068A96820F0F00008436060EA
:1022A0002878C00744D06868012816D02168022821
:1022B00016D0890700294CDA616821F00301014337
:1022C0006160FFF7EDFB6968074641F2883001293C
:1022D0000ED00229814618D026E021688903E9E75B
:1022E0008901E7E7FFF7DCFBC11B494501D918E08D
:1022F00081466068C0F381000128F3D118E000BF77
:10230000FFF7CEFBC11B49450BD86068C0F38100C5
:102310000228F5D10CE000BFFFF7C2FBC11B494505
:1023200002D90320BDE8F087606810F00C0FF3D1EC
:10233000D8F80010404601F00701B1420BD90168FE
:1023400021F0070131430160006800F00700B0424E
:1023500001D00120E6E72878400705D56068E968E4
:1023600020F4E060084360602878000706D56068C4
:10237000296920F4605040EAC100606000F056F81E
:102380006168084AC1F30311515CC84006490860FE
:102390000020FFF719FE0020C4E7000000200240E3
:1023A00000100240546E00082C0000200F22026032
:1023B0000C4A536803F003034360536803F0F003CF
:1023C0008360536803F4E063C36052684FF4E063D2
:1023D00003EAD20202610448006800F007000860C6
:1023E00070470000001002400020024004480549E8
:1023F00000684968044AC1F30221515CC840704733
:102400002C00002000100240646E000804480549BA
:1024100000684968044AC1F3C221515CC840704752
:102420002C00002000100240646E000812A185B04C
:102430000FC98DE80F0014A0144A00680490516879
:10244000134801F00C03042B10D0082B0ED1C1F35C
:102450008343C9031DF803000AD5516804AAC1F3D8
:102460004041515C0A4A5043B0FBF1F005B070475F
:1024700008494843FAE70000020304050607080973
:102480000A0B0C0D0E0F101001020000001002408C
:1024900000127A0000093D002DE9F84F044600784B
:1024A000B94DC00748D06868C0F38100012807D043
:1024B0006868C0F38100022809D16868C00306D5A6
:1024C0002868800338D5606800286FD034E06068E1
:1024D000B0F5803F0BD010B1B0F5A02F11D0286817
:1024E00020F480302860286820F4802002E02868EA
:1024F00040F480302860606888B1FFF7D1FA064662
:1025000009E0286840F480202860F0E7FFF7C8FA67
:10251000801B642875D828688003F7D50CE0FFF786
:10252000BFFA064605E000BFFFF7BAFA801B642831
:10253000F0D828688003F7D42078944E80074FF0B5
:1025400001094FF000083BD5686810F00C0F07D068
:102550006868C0F38100022809D16868C00306D406
:102560002868800714D5206901281FD110E0206950
:10257000B0B1C6F80090FFF793FA074605E000BF38
:10258000FFF78EFAC01B0228C4D828688007F7D549
:102590002868616920F0F80040EAC10028600FE077
:1025A000C6F80080FFF77CFA074606E0E9E000BFC6
:1025B000FFF776FAC01B022823D828688007F7D4D3
:1025C000207800072CD57248A169D9B1C0F80090D5
:1025D000FFF766FA074604E0FFF762FAC01B02281D
:1025E0000FD8686A8007F7D56A484FF4FA51006837
:1025F000B0FBF1F0009000BF0098411E0091FAD2AC
:102600000EE080E0C0F80080FFF74AFA074604E0D9
:10261000FFF746FAC01B022875D8686A8007F7D40E
:102620002078400760D5E8690027C00008D4E86931
:1026300040F08050E861E869012700F08050009088
:1026400055480168C90513D40168834641F4807177
:102650000160FFF725FA824606E000BFFFF720FA87
:10266000A0EB0A0064284ED8DBF80000C005F5D5C1
:10267000E06801280AD008B1052813D0286A20F0A4
:1026800001002862286A20F0040002E0286A40F075
:1026900001002862E06841F2883B98B1FFF700FA38
:1026A00082460BE0286A40F004002862EEE700BF93
:1026B000FFF7F6F9A0EB0A0159455AD8286A8007B6
:1026C000F6D50CE0FFF7ECF9824605E0FFF7E8F9F4
:1026D000A0EB0A0159454CD8286A8007F6D41FB1EF
:1026E000E86920F08050E861E06988B36968C1F367
:1026F0008101022945D00228C6F8608004D0FFF786
:10270000CFF9044638E034E0FFF7CAF9074604E0A1
:10271000FFF7C6F9C01B02282BD828688001F7D420
:10272000206AB0F5803F05D16868A16820F40030C8
:1027300008436860D4E908010843696821F474110A
:1027400008436860C6F86090FFF7AAF9044606E0FF
:1027500015E000BFFFF7A4F9001B022809D828687C
:102760008001F7D50BE000BFFFF79AF9001B0228A4
:1027700002D90320BDE8F88F28688001F4D4002036
:10278000F8E70120F6E70000001002400000424296
:10279000800442422C0000200070004070477047C7
:1027A00010B590F83C20012A25D0012280F83C2069
:1027B000CA688C6822F4407222434C6822F480621A
:1027C00022430C6822F4006222430C6922F48052F6
:1027D00022434C6922F4005222438C6922F4804245
:1027E000224322F40041026800232143516480F80F
:1027F0003C30002010BD022010BD30B590F83C20C8
:10280000012A20D0012280F83C20022380F83D30AC
:1028100003685C6824F070045C6003685C680D68A1
:102820002C435C6003689C6824F080049C6003680F
:102830009C6849680C439C6080F83D20002180F82A
:102840003C10084630BD022030BD10B5040003D056
:1028500094F83D0010B107E0012010BD002084F87D
:102860003C00204600F00CF8022084F83D00211DB9
:10287000206801F039FF012084F83D00002010BDE0
:1028800008B500680649884208D10648C16941F088
:102890001001C161C06900F01000009008BD000087
:1028A00000100040001002400168CA6842F00102B6
:1028B000CA600068016841F00101016000207047B2
:1028C000704770B50446006801694FF00005C943C0
:1028D000890715D4C168C943890711D4E91E01616C
:1028E00001202077206880698007204602D0FFF70A
:1028F000E7FF04E000F0EAF8204600F08BF92577C6
:1029000020680169C943490717D4C168C943490709
:1029100013D46FF0040101610220207720688069E0
:1029200010F4407F204602D0FFF7CAFF04E000F019
:10293000CDF8204600F06EF9257720680169C9437B
:10294000090716D4C168C943090712D46FF00801FA
:102950000161042020772068C0698007204602D0EA
:10296000FFF7AEFF04E000F0B1F8204600F052F9A6
:10297000257720680169C943C90617D4C168C943CE
:10298000C90613D46FF01001016108202077206878
:10299000C06910F4407F204602D0FFF791FF04E0A9
:1029A00000F094F8204600F035F925772068016999
:1029B000C943C90708D1C168C943C90704D1891EE1
:1029C0000161204600F044F920680169C943090605
:1029D00009D4C168C943090605D46FF080010161BB
:1029E0002046FFF7DBFE20680169C943490609D488
:1029F000C168C943490605D46FF040010161204612
:102A000000F030F920680169C94389060BD4C16818
:102A1000C943890607D46FF0200101612046BDE853
:102A20007040FFF7BCBE70BD10B586B000210091AC
:102A30000191029103911F4B02681F4802211F4C14
:102A40009A4218D1826942F0400282618069039102
:102A500000F0400004904FF4D440CDE900016946F5
:102A60001748FEF71FFF606820F0C00040F0E060EC
:102A700040F0C0001AE0134B9A4218D1826942F02C
:102A8000100282618069039100F0100004904FF4FD
:102A90007070CDE9000169460B48FEF703FF6068DE
:102AA00020F4406040F0E06040F44060606006B0B8
:102AB00010BD0000002C0140001002400000014049
:102AC000001801400004004000100140704770B53C
:102AD000044690F83C000D4601280DD0012684F8EC
:102AE0003C60022084F83D0042B1042A18D0082A34
:102AF0002AD00C2A4DD139E0022070BD206801F0A7
:102B000045FE2068816941F0080181612068816982
:102B100021F004018161206881692A69114311E073
:102B2000206801F063FE2068816941F400618161E1
:102B30002068816921F480618161206881692A6946
:102B400041EA0221816124E0206801F085FE2068CD
:102B5000C16941F00801C1612068C16921F0040127
:102B6000C1612068C1692A69114311E0206801F040
:102B7000A7FE2068C16941F40061C1612068C16994
:102B800021F48061C1612068C1692A6941EA02219A
:102B9000C16184F83D60002084F83C0070BD10B530
:102BA000040003D094F83D0010B107E0012010BDEF
:102BB000002084F83C00204600F00CF8022084F845
:102BC0003D00211D206801F08FFD012084F83D00AB
:102BD000002010BD08B50C4A01680C48914207D18D
:102BE000816941F400618161806900F4006009E05D
:102BF000074A914207D1C16941F00201C161C06930
:102C000000F00200009008BD002C014000100240BE
:102C1000000400407047000010B50446006801221F
:102C200001F0A8FD08492068884202D0074988427F
:102C300003D1416C41F4004141642068016841F0D6
:102C400001010160002010BD002C01400034014052
:102C500000680349884201D1FFF79CB97047000022
:102C600000140040704700002DE9F8430446006856
:102C70000168C943C90626D401684FF000084068BE
:102C80000090204600F052F8606B006840680F49E1
:102C90000F4F4860C0F5807086B201207E803C1DD9
:102CA0003870002503E0605DFEF748F86D1CB54202
:102CB000F9DB87F80080391DBDE8F8434FF48072D6
:102CC000044800F03DBABDE8F8830000C8000020C9
:102CD000B62A00200404002038B5054600680168C3
:102CE000C943C9061CD4016840680090284600F01A
:102CF0001DF8686B006840680A490B4C4860C0F5D5
:102D0000807081B2618001202070201D01F0C4FB21
:102D1000211D2846BDE838404FF4807200F010BAFB
:102D200038BD0000C0000020B628002010B50446C1
:102D30000068416994F83920C1F3C011212A0BD1F0
:102D400051B1416921F080014161206B08B1FEF76A
:102D500023FB204601F068FE2068416994F83A2080
:102D6000C1F38011222A0BD151B1416921F04001F8
:102D70004161606B08B1FEF70FFB204601F046FE93
:102D8000002010BD7047000070B50268044610684E
:102D9000D168536910F00F0F51D003F0010501F411
:102DA000907635435DD0C20705D0CA0503D5E26BE6
:102DB00042F00102E263420705D5DA0703D0E26B75
:102DC00042F00202E263820705D5DA0703D0E26B24
:102DD00042F00402E263020705D5DA0703D0E26B92
:102DE00042F00802E263E26B002A34D0800604D588
:102DF000880602D5204601F020FE20684069E16B7C
:102E0000C0F3801001F008010143204624D001F0F6
:102E1000FDFD2068416949061AD5416921F040014C
:102E20004161606BA0B11B494163606BFEF7CCFA56
:102E3000002810D0606B416BBDE8704008478306E6
:102E40000FD58B060DD52046BDE8704001F0F5BDCD
:102E50002046FFF797FF70BDFFF794FF0020E06367
:102E600070BD030606D50B0604D52046BDE87040AC
:102E700001F0E6BE4006F3D54806F1D5D1682046FC
:102E800021F04001D160202184F8391000F003FACC
:102E900070BD00006D49000870B5040004D094F8BE
:102EA0003900002510B106E0012070BD84F83850CB
:102EB000204600F023F8242084F839002068C168F7
:102EC00021F40051C160204601F002FE2068016932
:102ED00021F4904101612068416921F02A0141619A
:102EE0002068C16841F40051C160E563202084F886
:102EF000390084F83A00002070BD00002DE9F0434D
:102F000085B0002500950195029503950446DFF8EC
:102F10000C82D0F800C0824802210322814B202776
:102F200080264FF40079C44543D1D0F818C04CF442
:102F3000804CC0F818C0D0F818C00CF4804CCDF804
:102F400010C0D0F818C04CF0040CC0F818C080694C
:102F5000CDE9009100F00400CDE9032069469846D0
:102F60001846FEF79FFCF000CDE900056946404693
:102F70000295FEF797FCDFF8B4816B494046C0E943
:102F80000015C0E90256C8F81050C8E90557C8F83E
:102F90001C50FEF7D5FB08B1FDF76CFFC4F8348078
:102FA000002205212520C8F82440FFF777F82520C6
:102FB0005FE0DFF87C81C44560D1D0F81CC04CF4E0
:102FC000003CC0F81CC0D0F81CC00CF4003CCDF88C
:102FD00010C0D0F818C04CF0040CC0F818C08069BC
:102FE000039200F0040004900420CDE9000169463A
:102FF00098461846FEF756FC0820CDE900056946BC
:1030000040460295FEF74EFCDFF82081464908F164
:10301000440840461431C0E90015C0E90256C8F81A
:103020001050C8E90557C8F81C50FEF789FB08B1D5
:10303000FDF720FF3D4F3C48C4F8348088372830E6
:10304000C8F8244001C7102061C7384847F8105914
:1030500088307D61BD61FD61FEF772FB08B1FDF74F
:1030600009FF27630022052126207C62FFF716F85E
:103070002620FFF707F805B0BDE8F0832D4B9C45EF
:10308000F9D1C36943F48023C361C36903F4802386
:103090000493836943F0200383618069DFF898809B
:1030A00000F0200004904FF48070CDE900010392FD
:1030B00069464046FEF7F6FBCDE900956946404675
:1030C0000295FEF7EFFB1D48416821F0300141F009
:1030D000E06141F030014160DFF85080124908F1B1
:1030E000CC0840462839C0E90015C0E90256C8F8A6
:1030F0001050C8E90557C8F81C50FEF721FB08B16D
:10310000FDF7B8FEC4F83480002205212720C8F856
:103110002440FEF7C3FF2720ABE700000038014042
:10312000001002400008014058000240C404002082
:1031300000440040004800400014014000000140ED
:10314000F8B5044690F83A0020283CD1C1B3BAB390
:1031500094F83800012836D0012084F83800A162A4
:10316000A2850025E563222084F83A00636B1748A6
:103170009862636B1648D862636B16481863606B7D
:10318000134645630846666B216802463046091DB2
:10319000FEF714FB206801684168009184F83850FC
:1031A000C16841F48071C1602068416941F001014A
:1031B00041612068416941F0400141610020F8BD52
:1031C000FFE70120FBE70220F9E70000C7490008FC
:1031D000034A00087D490008704770472DE9F8430D
:1031E000044690F839001F4616460D46202850D157
:1031F000A5B19EB194F8380001284AD0012084F886
:1032000038004FF00008C4F83C80212084F83900D1
:10321000FEF746FCA6848146E68426E00120BDE850
:10322000F883E08C401EE084A0684B46B0F5805FD8
:103230004FF000024FF080012046009703D001F0CC
:1032400030FDE8B90DE001F02CFDC8B928882168EF
:10325000C0F308004860206908B16D1C05E0AD1C92
:1032600003E0216815F8010B4860E08C0028D8D1F4
:103270004B46002240212046009701F012FD08B184
:103280000320CCE7202084F8390084F8388000201F
:10329000C5E70220C3E7704770B5002401E0641C55
:1032A000E4B200F0C5FF08B1022CF8D3114D012C97
:1032B00001D9012028700820687019200E4E0024C2
:1032C000E861642002F0D2FA00F0DAFFA868FDF7A6
:1032D00078FA46F82400641C0A2CF2DBA868FDF793
:1032E00070FA01460448FDF7B1FDFDF73BFA68604E
:1032F00070BD000018010020C82B0020FEE770B54B
:103300000D46044600F090FAED2000F05DFA00F062
:10331000CFFA08E0012D0BD0012000F025FA04F8C7
:10332000010B6D1EADB2002DF4D100F09FFA70BDFF
:10333000002000F019FA2070F3E710B5044600F001
:1033400073FAEC2000F040FA00F0B2FA207800F0B6
:103350003BFA00F0ADFA00F089FA10BD01684A6945
:10336000D24352050CD46FF480624A610421016497
:10337000002140F8301F2022427301730120704762
:10338000002070472DE9F84F0446C06A1E46924659
:103390000D4621680A6842F480620A60042807D05A
:1033A000012805D010F5803F02D0206B112804D1F0
:1033B0002068016841F4807101604FF001185346A4
:1033C000002241462046009600F0BDF8B8BB2069B7
:1033D00008F10109B0F5804F12D00620216800EAFB
:1033E000D51747F0F00008613346524608F107014F
:1033F000204600F0D9F838B1206C04282FD01EE008
:10340000E8B240F001001FE02168E8B208613346ED
:1034100052464946204600F0C7F80028ECD1206803
:10342000416981690091016841F4807101605346EE
:10343000002241462046009600F085F810B1032096
:10344000BDE8F88F47F0F100216808613346524625
:103450004946204600F0A8F80028CDD1F0E7012029
:10346000EEE70000F8B50446C06A1E460D46174652
:10347000042807D0012805D010F5803F02D0206B2A
:10348000122804D12068016841F48071016013465C
:1034900000224FF001112046009600F054F8A0B928
:1034A0002069B0F5804F12D00620216800EAD510BF
:1034B00040F0F000086133463A460E49204600F0DD
:1034C00073F838B1206C042811D00320F8BD05F042
:1034D000FE0000E0E8B221680861064933463A463A
:1034E000891F204600F060F80028EBD1F8BD0120CC
:1034F000F8BD00000800010070B516460D460446F0
:103500001AE02046FFF72AFF08B1012070BD681CB1
:1035100012D025B1FEF7C4FA801BA8420CD954F88A
:10352000400F40F0200044F81009002020602021C6
:1035300061732073032070BD20684069C043400759
:10354000DFD4002070BD2DE9F0471E4690460D46A1
:103550000446C1F30747DDF8209012E0701C10D03C
:103560002EB1FEF79DFAA0EB0900B04209D9002068
:1035700044F8300F20216173A07320730320BDE84D
:10358000F0872068012F0AD0806925EA0000000436
:10359000000C06D000214145E0D00020EFE7406953
:1035A000F3E70121F7E700002DE9F0479A4691463D
:1035B0000D46044600264FF02008C1F307472AE0D5
:1035C00020684069C043400512D42068016841F476
:1035D0000071016021686FF48060486104202064FC
:1035E000266384F83D8084F83C600120BDE8F087C4
:1035F000B9F1FF3F0FD0B9F1000F05D0FEF750FA37
:10360000A0EB0A01494506D944F8306F84F80D80D3
:1036100026730320EAE72068012F07D0D0F81800AE
:1036200025EA00000004000CE0D0C9E74069F7E794
:103630002DE9F041002590460E460446202721E062
:103640004069C043C0060CD421686FF01000486187
:103650002564256384F83D7084F83C500120BDE862
:10366000F0812EB1FEF71CFAA0EB0800B04209D998
:1036700054F8400F40F0200044F8040967702570AA
:103680000320ECE720684169C9434906D8D40020EB
:10369000E5E770B516460D4604461AE02046FFF7EA
:1036A0005DFE08B1012070BD681C12D025B1FEF787
:1036B000F7F9801BA8420CD954F8400F40F02000C5
:1036C00044F810090020206020216173207303203A
:1036D00070BD20684069C0430006DFD4002070BD83
:1036E00010B50F4C002240212046FEF7D4F900F01F
:1036F0001BFE002280212046FEF7CDF9022002F0B9
:10370000C4F8012240212046FEF7C5F9022002F04C
:10371000BCF820460022BDE810404021FEF7BBB9AE
:10372000000C014010B50F4C002240212046FEF74E
:10373000B2F900F0F9FD012280212046FEF7ABF935
:10374000022002F0A2F8012240212046FEF7A3F950
:10375000022002F09AF820460022BDE810404021E5
:10376000FEF799B9000C01402DE9F041074600240D
:1037700000F0CAFD134E0025002240213046FEF71E
:103780008AF9022002F081F8012240213046FEF73A
:1037900082F96006040E80213046FEF777F908B101
:1037A000641CE4B2012002F070F86D1CEDB2082D2B
:1037B000E2D327B1FFF794FF2046BDE8F081FFF781
:1037C000B1FFF9E7000C014070B5054600F0ACFD13
:1037D000144E002240213046FEF75DF900242806F1
:1037E00001D5012200E0002280213046FEF753F986
:1037F0006806050E022002F048F8012240213046FA
:10380000FEF749F9022002F040F80022402130463C
:10381000FEF741F9022002F038F8641CE4B2082CEB
:10382000DDD370BD000C014010B500F07DFD0E4CE5
:10383000012280212046FEF72EF901224021204658
:10384000FEF729F9042002F020F80022802120460A
:10385000FEF721F9042002F018F820460022BDE806
:1038600010404021FEF717B9000C014010B500F0E0
:103870005BFD0E4C002240212046FEF70CF9002291
:1038800080212046FEF707F9042001F0FEFF012207
:1038900040212046FEF7FFF8012280212046FEF756
:1038A000FAF8BDE81040042001F0EFBF000C014021
:1038B00070B5002400F028FD134D01228021284618
:1038C000FEF7E9F8012001F0E0FF0122402128463F
:1038D000FEF7E1F8012001F0D8FF07E0641CE4B234
:1038E000FA2C03D9FFF7C2FF012070BD80212846C2
:1038F000FEF7CCF80028F1D1002240212846FEF73F
:10390000CAF8002070BD0000000C014070B51446DC
:10391000FCF715FD2063616BFCF711FD2168FCF7D6
:1039200014FDE060A169FCF7B9FF01D2A06907E0CE
:10393000E169E068FCF7A8FF01D2E06900E0E06817
:10394000E060216B6068FCF700FD2061216AFCF7F4
:10395000A5FF01D2206A07E0616A2069FCF794FFA5
:1039600001D2606A00E0206920610121606BFCF7F0
:103970005CFD216BFCF7E6FCA16BFCF78EFCA168FB
:10398000FCF7E3FC6061A16AFCF788FF01D2A56A3D
:1039900007E0E16A6069FCF777FF01D2E56A00E0C1
:1039A00065696561D4E90301FCF777FC2946FCF7FA
:1039B00074FC0546206BA16C20F00040FCF764FF0E
:1039C00000D200252946E06BFCF767FCE063216C20
:1039D000FCF764FF01D2206C07E0616CE06BFCF740
:1039E00053FF01D2606C00E0E06BE063616BA163A8
:1039F000216B616370BD00002DE9F041134D044659
:103A0000B5F90000FCF7A5FE6FF00E063146FCF795
:103A10000CFD0F4F3946FCF798FC6060B5F90200C9
:103A2000FCF797FE3146FCF700FD3946FCF78DFCAC
:103A3000A060B5F90400FCF78CFE3146FCF7F5FCFC
:103A40003946FCF782FC2060BDE8F081E8000020E8
:103A50000000344310B54FF4807205490548FFF764
:103A60006FFB04480068C16841F01001C16010BDDF
:103A7000BA2A002004040020024630B4204B21481A
:103A8000092A3BD2DFE802F03A050C141A20262C52
:103A9000320009B1012200E000224FF4807105E0FC
:103AA00009B1012200E000224FF40071184622E023
:103AB00009B1012200E0002201211CE009B101222C
:103AC00000E00022022116E009B1012200E00022FC
:103AD000202110E009B1012200E0002210210AE0BB
:103AE00009B1012200E00022082104E009B101220D
:103AF00000E00022042130BCFDF7CDBF30BC704790
:103B0000000C014000180140FEB500241648009446
:103B10000194144902940160891501254461C0E9AA
:103B20000215022606614FF460214460C161FDF771
:103B3000D5FA08B1FDF79EF907200094CDE90150B0
:103B400069460948FDF748FA08B1FDF793F9CDE950
:103B5000005669460448FDF73FFA002801D0FDF7FA
:103B600089F9FEBD002401407C020020194808B5F7
:103B7000416941F0010141614069002200F001000A
:103B8000009005210B20FEF789FA0B20FEF77AFA48
:103B9000002205210D20FEF781FA0D20FEF772FAB2
:103BA000002205210F20FEF779FA0F20FEF76AFAAE
:103BB000002205211020FEF771FA1020FEF762FAAC
:103BC000002205211120FEF769FABDE80840112006
:103BD000FEF758BA0010024010B59EB000F098FEF3
:103BE000142221496846FCF71BFB0021684601F0BE
:103BF0005BFF1E4C1C4914222060143105A8FCF701
:103C00000FFB002105A801F04FFF17496060142247
:103C100028310AA8FCF704FB00210AA801F044FFA0
:103C20001149A06014223C310FA8FCF7F9FA0021D9
:103C30000FA801F039FF0C49E0601422503114A89C
:103C4000FCF7EEFA002114A801F02EFF06492061CE
:103C50001422643119A8FCF7E3FA002119A801F035
:103C600023FF60611EB010BDDC6D0008080000205D
:103C70002DE9F04F85B00024494800940194029446
:103C80000394816941F040018161816901F0400143
:103C90000491816941F010018161816901F0100195
:103CA0000491816941F004018161816901F004019D
:103CB0000491816941F008018161816901F0080185
:103CC0000491816941F0200181618069DFF8D4901D
:103CD00000F02000049000223F214846FDF7DBFE63
:103CE000DFF8C4A0012208215046FDF7D4FEDFF81A
:103CF000BCB04FF4E057002239465846FDF7CBFEE2
:103D00000122C0212A48FDF7C6FE4FF44078002268
:103D100041462748FDF7BFFE3F2001250226CDE999
:103D20000005CDE9024669464846FDF7BBFD042083
:103D300000902048CDE9010469465046FDF7B2FDE8
:103D40000820CDE90005CDE9024669465046FDF759
:103D5000A9FD00970396CDE9015469465846FDF741
:103D6000A1FDC020CDE900050320CDE90240694650
:103D70000F48FDF797FDCDF800800396CDE901547B
:103D800069460B48FDF78EFD002205210820FEF74D
:103D900085F90820FEF776F905B0BDE8F08F000040
:103DA00000100240001801400010014000140140C2
:103DB000000C0140000021100D4810B50B490160B6
:103DC0000C49416000214FF480428160C0E9031238
:103DD00041618161C1610162FDF768FE002803D085
:103DE000BDE81040FDF746B810BD00000058004087
:103DF000F0020020A086010010B590B000240E94BF
:103E00001C2168460F94FCF724FA1C2107A8FCF734
:103E100020FA2D482B4901604721C0E9011444F6DE
:103E20002061C0E9031444618461FEF7B8FE08B163
:103E3000FDF720F80E940EA923480F94FEF7DDFC41
:103E400008B1FDF717F86020009040F2DC50CDE992
:103E50000104039404940594002269461A480694C8
:103E6000FEF735FE08B1FDF705F80422694616484D
:103E7000FEF72DFE08B1FCF7FDFF08226946124847
:103E8000FEF725FE08B1FCF7F5FF0C2269460E4847
:103E9000FEF71DFE08B1FCF7EDFF079408940994A6
:103EA0004FF400500A94CDE90B4007A906480D9441
:103EB000FEF776FC08B1FCF7DDFF0348FEF7B4FD22
:103EC00010B010BD002C01404403002010B58AB092
:103ED000002407941C2168460894FCF7BAF923488B
:103EE000214901604721C0E9011444F62061C0E97D
:103EF00003148461FEF753FE08B1FCF7BBFF07947F
:103F000007A91A480894FEF778FC08B1FCF7B2FF3D
:103F10006020009040F2DC50CDE9010400226946A7
:103F200012480494FEF7D3FD08B1FCF7A3FF042266
:103F300069460E48FEF7CBFD08B1FCF79BFF08224F
:103F400069460A48FEF7C3FD08B1FCF793FF0C224F
:103F500069460648FEF7BBFD08B1FCF78BFF034836
:103F6000FEF762FD0AB010BD00040040840300208B
:103F70001CB500240E4800940C49019401604721AF
:103F8000C0E9011401218461C160FEF75EFC08B143
:103F9000FCF770FF0094694605480194FEF72DFC7C
:103FA000002801D0FCF766FF1CBD00000010004097
:103FB000C40300200C4810B50A4901604FF41651A3
:103FC0004160002181600C22C160C0E9041281615E
:103FD000C161FEF761FF002803D0BDE81040FCF787
:103FE00049BF10BD00380140040400200C4810B542
:103FF0000A4901604FF4E1314160002181600C22E7
:10400000C160C0E904128161C161FEF745FF00286B
:1040100003D0BDE81040FCF72DBF10BD00440040A8
:10402000440400200C4810B50A4901604FF41651B1
:104030004160002181600C22C160C0E904128161ED
:10404000C161FEF729FF002803D0BDE81040FCF74E
:1040500011BF10BD0048004084040020FEE77047F7
:104060000907090E002806DA00F00F0000F1E02031
:1040700080F8141D704700F1E02080F800147047AC
:104080000021016341638163C16001614161C163DA
:104090007047000000B51148FFF7F2FF0F48983055
:1040A000FFF7EEFF0D484C30FFF7EAFF0B480C49D5
:1040B0004C3000F017F80A4908486031983000F099
:1040C00011F807490548303100F00CF8044903485D
:1040D0009031E4305DF804EB00F004B8042C0020CB
:1040E0004C0100200A6802604A6842608A68826067
:1040F000CA6882610A69C2614A6902628A69426267
:10410000CA6982620A6AC2624A6A02648A6A42644C
:10411000C96A8164704700001C4910B50A6840F202
:10412000DC5050630A6890630A68D06309680864C9
:1041300017490A6850630A6890630B6840F2E652B8
:10414000DA630968086400211048FEF765FD042160
:104150000E48FEF761FD08210C48FEF75DFD0C21BD
:104160000A48FEF759FD00210948FEF755FD0421D4
:104170000748FEF751FD08210548FEF74DFDBDE853
:1041800010400C210248FEF747BD00004403002008
:10419000840300202DE9F041064600200F46044626
:1041A000214D18E020B1012807D0022812D116E0D5
:1041B000315DFE290ED101200CE0315D3A1B521C0D
:1041C000914206DC8A19A11E515C0A2902D1022003
:1041D00000E00020641CBC42E4DBBDE8F081641C0C
:1041E000305D232810D0242818D02528F1D130198B
:1041F00030F8011F29804188A5F801108188698065
:10420000C088A5F80300E4E7311951F8010F686090
:104210004A680649AA60C1E9060202E0E868401E51
:10422000E860FCF785FDD4E74C0200201C2F00203D
:104230001CB506208DF80000002001906846FFF7AD
:104240007CF80A2001F012FB8D208DF800006846F2
:10425000FFF773F80A2001F009FBED208DF800004C
:104260006846FFF76AF8012101A8FFF748F89DF8B2
:104270000400400601D500201CBD01201CBD00002B
:104280003EB500201F4C01900290607840F0400045
:104290008DF800006846FFF750F8E069400001F033
:1042A000E5FA10208DF800006846FFF746F8062171
:1042B00001A8FFF724F89DF804009DF805100004FC
:1042C00000EB01209DF8061008442061010202D590
:1042D00040F07F4020619DF807009DF80810000421
:1042E00000EB01209DF8091008446061010202D52D
:1042F00040F07F406061642190FBF1F0FCF729FA07
:10430000A0603EBD180100201FB580200090002055
:104310000190012002900220039069460148FDF7B8
:10432000C1FA1FBD000C01401FB580200090012084
:104330000190002002900220039069460148FDF799
:10434000B1FA1FBD000C014008B5102000900223F7
:10435000024A88210248FDF751FD08BD38010020BE
:10436000F00200202DE9F8430646102402231A4AE1
:1043700088211A480094FDF741FD174A06230A32A6
:10438000892116480094FDF731FC134C0A346078FB
:10439000217800EB0120AF214843FCF7E3F9DFF877
:1043A00040804146FCF703F80E49FBF7C8FFA4F133
:1043B0000C050746A8602079E17800EB0120642114
:1043C0004843FCF7CFF94146FBF7F1FF68603760DF
:1043D00068687060BDE8F8833A010020F0020020B0
:1043E00000FF7F47000034421CB50EA10F4CD1E9FD
:1043F0000001CDE900010122D1022046FDF74BFB6F
:10440000012211032046FDF746FB3220FDF70EFA8C
:10441000A315062269460648FEF7E0FE054900207E
:1044200008701CBDC00017281B4400000014014088
:1044300084040020C000002010B54FF480720E49A3
:104440000E48FEF77DFE0D480068C16841F010017E
:10445000C1603220FDF7EAF9FFF7C6FF084C0022E1
:104460004FF400612046FDF716FB0022A114204600
:10447000BDE81040FDF70FBBBA28002084040020DF
:10448000001401400A4601464FF480730148FEF7CC
:10449000A5BE00008404002010B5044606A1FBF769
:1044A000E3FE06A12046FBF7DFFE2046BDE81040F4
:1044B00003A1FBF7D9BE0000503A0000493A0000C2
:1044C000443A00002DE9F0470C460E4607462649BF
:1044D000FBF738FF82464FF080482046FCF7A4F9EE
:1044E0004FF06632214BFCF753F8894605462049C8
:1044F0003846FBF7D2FE1F4C074616F1FF4F13D389
:1045000050464146FBF7C9FEA0604E463846FCF7D0
:104510008BF92A463346FCF735F80022164BFBF799
:1045200090FFFCF794F90FE02E464D465046FCF7FD
:104530007BF932462B46FCF725F8FCF788F9A0609A
:1045400038464146FBF7FBFE6060A068FCF739F98E
:104550000A490968C8636068FCF733F908490968C3
:10456000C863BDE8F08700000080BB446666F63F84
:1045700000C0BC440C020020000014404403002092
:10458000840300202DE9F0410C4607464FF4000655
:104590000F49FBF782FE0F49DFF83C80B7420D68F8
:1045A00002DB4146FBF779FEFCF70BF9686308482C
:1045B0002146FBF7C4FE094DB44202DA4146FBF73F
:1045C0006CFEFCF7FEF829688863BDE8F081000006
:1045D0000080BB44440300200000204184030020ED
:1045E00010B54FF4807205490548FEF7A9FD04484F
:1045F0000068C16841F01001C16010BD562D002057
:104600004404002010B5502080F31188BFF34F8F71
:10461000BFF36F8F02F096FA18B104494FF0805043
:104620000860002080F3118810BD000004ED00E058
:1046300030B595B028216846FBF70BFE14210AA877
:10464000FBF707FE18210FA8FBF703FE0121080462
:10465000CDE900100024029402250491CDE9075011
:104660004FF4E01009906846FDF716FF0F20CDE9E2
:104670000A056802CDE90C4002210AA80E94FDF754
:10468000DFFDA80311900F950FA8FDF763FD15B08E
:1046900030BD00000D48016841F001010160416832
:1046A0000B4A1140416001680A4A114001600168EB
:1046B00021F480210160416821F4FE0141604FF442
:1046C0001F0181600449C003086070470010024068
:1046D0000000FFF8FFFFF6FE08ED00E00148FEF7DE
:1046E000F0B80000D4050020F0B502681C4B1D4D49
:1046F0001D4E1E4F1E4C4FF0804C984209D0A042D8
:1047000007D0604505D0A84203D0B04201D0B842DE
:1047100004D122F0700E4A6842EA0E02984209D093
:10472000A04207D0604505D0A84203D0B04201D0D6
:10473000B84203D122F44075CA682A4322F08005AA
:104740004A692A4302608A68C2620A6882629842A1
:1047500001D0A04201D10969016301214161F0BD8D
:10476000002C01400004004000080040000C004004
:104770000034014010B50123046A8B409C4304625D
:10478000036A8A401343036210BD0000F0B5026A59
:1047900022F001020262036A42688469124E24F028
:1047A00073050C682C4323F002058B682B430D4DD9
:1047B000A84201D0B04205D123F00807CB683B43A3
:1047C00023F00403A84201D0B04205D14D6922F480
:1047D000407215438A692A43426084614968416393
:1047E0000362F0BD002C014000340140F0B5026AC4
:1047F00022F010020262026A436884690D6824F4A0
:10480000E64444EA05248D6822F0200242EA0512BB
:104810000F4D104EA84201D0B04206D1CF6822F011
:10482000800242EA071222F04002A84201D0B042C0
:1048300007D14D6923F4406343EA85038D6943EA58
:10484000850343608461496881630262F0BD0000B2
:10485000002C014000340140F0B5026A22F480725D
:104860000262026A4368C46922F4007224F073058C
:104870000C68124E2C438D6842EA05220E4DA84268
:1048800001D0B04206D1CF6822F4006242EA07228A
:1048900022F48062A84201D0B04207D14D6923F4CE
:1048A000405343EA05138D6943EA05134360C4612D
:1048B0004968C1630262F0BD002C01400034014030
:1048C00030B5026A22F480520262046A4268C36907
:1048D0000D6823F4E64343EA05238D6824F400546D
:1048E00044EA0534084DA84202D0084DA84204D13C
:1048F0004D6922F4804242EA85124260C3614968F0
:104900000164046230BD0000002C0140003401400D
:1049100010B5154C00221021012001F0CFFEE060FF
:104920000028F7D000220C21012001F0C7FE6060B2
:104930000028F7D000222021032001F0BFFEA06054
:104940000028F7D000220821012001F0B7FE2061E5
:104950000028F7D000220821012001F0AFFE60619D
:104960000028F7D010BD00009000002010B5406A6C
:104970000021C185C184FEF705FA10BD70B5446AF7
:104980002068406994F83910C0F3C010002521292F
:1049900004D118B1E584204600F046F8206840694B
:1049A00094F83A10C0F38010222904D118B1E5859B
:1049B000204600F02BF8E06B40F01000E06320464A
:1049C000FEF7E0F970BD10B50146406A0968096854
:1049D000890613D40021C1850168CA6822F4807257
:1049E000CA6001684A6922F001024A6101684A69A5
:1049F00022F040024A61202180F83A10FEF7ECFBD9
:104A000010BD10B5406AFEF7E8FB10BD0168CA682A
:104A100022F49072CA6001684A6922F001024A6178
:104A2000202180F83A1070470168CA6822F0C0025D
:104A3000CA60202180F83910704710B590F83A10FC
:104A4000222901D0022010BD8168B1F5805F11D00C
:104A50000169002901681FD0496801F07F03816A5C
:104A60004A1C82620B70C18D491E0904090CC18564
:104A700018D02BE00269816A002A0268526805D0CA
:104A8000D2B20A80816A491C8162ECE7C2F3080253
:104A90000A80816A891CF7E74A68816A4B1C836235
:104AA0000A70E0E70168CA6822F02002CA60016863
:104AB000CA6822F48072CA6001684A6922F0010261
:104AC0004A61202180F83A10FEF786FB002010BDD5
:104AD0002DE9F041044600680169E26821F4405183
:104AE000114301612169A068084361690843216895
:104AF000CA6841F20C639A430243CA602068416964
:104B0000A26921F44071114341614C492068642538
:104B1000322688423CD1FDF779FC00EBC00101EB65
:104B2000001061688900B0FBF1F7FDF76FFC00EB46
:104B3000C00101EB00106168B0468900B0FBF1F0E4
:104B4000B0FBF5F06FF01801484307EB800106EB6E
:104B50000110B0FBF5F000F0F006FDF757FC00EB9C
:104B6000C00101EB001061688900B0FBF1F0B0FBFF
:104B7000F5F006EB0016FDF749FC00EBC00101EB78
:104B8000001061688900B0FBF1F7FDF73FFC3BE0E6
:104B9000FDF72CFC00EBC00101EB001061688900FF
:104BA000B0FBF1F7FDF722FC00EBC00101EB0010B8
:104BB0006168B0468900B0FBF1F0B0FBF5F06FF032
:104BC0001801484307EB800106EB0110B0FBF5F03C
:104BD00000F0F006FDF70AFC00EBC00101EB00104D
:104BE00061688900B0FBF1F0B0FBF5F006EB001650
:104BF000FDF7FCFB00EBC00101EB001061688900D0
:104C0000B0FBF1F7FDF7F2FB00EBC00101EB001088
:104C100061688900B0FBF1F0B0FBF5F06FF01801AE
:104C2000484307EB800108EB0110B0FBF5F0216869
:104C300000F00F0030448860BDE8F081003801408A
:104C400090F83910212901D0022070478168B1F510
:104C5000805F016A0BD04A1C0262026809785160C9
:104C6000C18C491E0904090CC1840ED017E00988C3
:104C70000268C1F30801516001690029016A02D08C
:104C8000491C0162ECE7891CFBE70168CA6822F055
:104C90008002CA600068C16841F04001C160002024
:104CA00070472DE9F041984617460E460446069D8A
:104CB0001DE0681C1BD02DB1FCF7F2FEA0EB080034
:104CC000A84214D92068C16821F4D071C16020685D
:104CD000416921F001014161202084F8390084F804
:104CE0003A00002084F838000320BDE8F0812068F5
:104CF000006836EA000004D00020B842D9D0002075
:104D0000F3E70120F9E7000010B5044800F020F8AF
:104D1000BDE810400148FEF737B800000404002049
:104D200010B5044800F014F8BDE810400148FEF743
:104D30002BB800004404002010B5044800F008F827
:104D4000BDE810400148FEF71FB8000084040020B1
:104D500010B5044600680B49884202D12046FDF791
:104D600083FF09492068884202D12046FDF7C8F92F
:104D700006492068884204D12046BDE81040FDF76E
:104D8000ABBF10BD00380140004400400048004067
:104D9000FEE700000FB4084B10B504A902AA03985F
:104DA00000F0CEF8044602A9002000F060FC204686
:104DB00010BC5DF814FB00006F56000802E008C844
:104DC000121F08C1002AFAD170477047002001E085
:104DD00001C1121F002AFBD1704700002DE9FF5FBF
:104DE000DDE90220010DDDF838B0024318D044F6A9
:104DF0001050A1F2FF3141430D140F98012820D02B
:104E0000A5EB0B00401C5FEA000A4FF00004474E80
:104E1000DFF81C91A046504616D5CAF1000728E0DD
:104E20000F98012443A2012808D0002100980F9B6D
:104E3000C0E90021C0E90243BDE8FF9F6FEA0B0112
:104E4000F4E7CBF10000DEE7074612E0F80707D0F1
:104E50002246334640464946FBF79AFB8046894640
:104E60002246334610461946FBF792FB04460E468F
:104E70007F10002FEAD1DDE90201BAF1000F4246AE
:104E80004B4602DAFBF784FB01E0FBF7F3FB044639
:104E90000E460022284BFBF71FFE03D84FF0FF30D1
:104EA000014607E00022254B20463146FBF7C9FAB0
:104EB000FBF7FAFD102409E0002C0ADB0A2200238C
:104EC000FBF70CFD019B30321A55641E50EA0102BB
:104ED000F2D1641C019AC4F1110314440F9A012AFF
:104EE00003D0012208430DD10AE0084304D000207A
:104EF0004FF0110B0F9080E7A3EB0B056D1E0DE03B
:104F00005B4504DD4FF0000205F1010504E003DA22
:104F10004FF00002A5F10105002AECD000980F998E
:104F2000C0E90231C0E9004586E7000000002440E6
:104F30000000F03F300000000000F0430000E03FC0
:104F40002DE9FF4F95B09B468946064600250FE2A6
:104F5000252877D100242746F84A0121059400E04E
:104F6000044316F8013F203B01FA03F01042F7D149
:104F700030782A2811D06FF02F033078A0F130025A
:104F8000092A16D8059A44F0020402EB820203EBC8
:104F900042021044761C0590EFE759F8042B059265
:104FA000002A03DA504244F40054059044F002040D
:104FB000761C30782E2816D116F8010F44F0040420
:104FC0002A280DD06FF02F023078A0F13003092B82
:104FD00009D807EB870302EB4303C718761CF3E7F6
:104FE00059F8047B761C30786C280FD006DC4C28EE
:104FF00017D068280DD06A2814D104E0742810D086
:105000007A280FD10DE044F400140AE044F480142F
:1050100001E044F440147278824202D104F5801415
:10502000761C761C307866280BD013DC582877D095
:1050300009DC002875D04528F6D04628F4D047284A
:105040001AD19DE118E0632835D0642879D065280D
:1050500012D195E1702873D008DC6728F1D0692857
:105060006FD06E280DD06F2806D1B5E073282CD0F4
:10507000752875D0782874D05A46179990476D1CBA
:1050800075E1C4F30250022809D003280DD0D9F8E5
:10509000001004280DD00D6009F1040967E1D9F86A
:1050A0000010EA17C1E90052F6E7D9F800100D80A8
:1050B000F2E70D70F0E719F8041B8DF800100020DE
:1050C0008DF80100EA46012003E059F804AB4FF0E7
:1050D000FF3061074FF0000102D40DE008F101013B
:1050E0008846B9420FDA8045F8DB1AF80810002923
:1050F000F4D108E008F1010188468142FADB1AF890
:1051000008100029F6D105985B46A0EB0807214658
:105110003846179A00F094FA284400EB080507E097
:105120004DE029E10DE01AF8010B5A461799904716
:10513000B8F10108F7D25B4621463846179A13E1C9
:1051400042E00A220092C4F302524FF0000A022AFF
:1051500008D059F804CB032A4FEAEC710AD00DE0CD
:1051600029E02AE009F1070121F00702F2E802C173
:10517000914609E00FFA8CFC4FEAEC71042A03D146
:105180004FFA8CFC4FEAEC71002907DA0A4600213D
:10519000DCF1000C61EB02012D2202E0220504D5B6
:1051A0002B228DF80420012203E0E20701D0202207
:1051B000F7E7904659E00A2102E010220DE01021A5
:1051C0004FF0000A00910BE010224FF0000A44F06B
:1051D00004040827009203E008224FF0000A00921E
:1051E000C4F30252022A05D059F804CB0021032A45
:1051F00008D009E009F1070121F00702F2E802C135
:10520000914605E01FFA8CFC042A01D10CF0FF0C3A
:105210004FF00008220728D5702806D0009B83F0A5
:10522000100353EA0A0305D00EE040228DF8042053
:10523000012208E05CEA010206D030228DF8042049
:105240008DF8050002229046009B83F0080353EA84
:105250000A030AD15CEA010201D1620705D53022B6
:105260008DF804204FF001087F1E582804D034A088
:1052700003900EA802900DE036A0F9E75346604671
:10528000009AFBF72BFB84460398825C0298401E31
:10529000029002705CEA0100F0D1029806A9081A97
:1052A00000F1200A600702D524F4803400E00127D1
:1052B000574502DDA7EB0A0000E0002000EB0A01E1
:1052C000009005984144401A0590E00306D45B46DF
:1052D0002146179A059800F0B3F90544002706E027
:1052E00001A85A46C05D179990476D1C7F1C474521
:1052F000F6DBE0030CD55B462146179A059800F0D3
:105300009FF9054404E030205A46179990476D1CD8
:105310000099481E00900029F5DC08E002980299E7
:105320005A460078491C0291179990476D1CBAF1B2
:105330000001AAF1010AF1DC65E100000928010081
:1053400030313233343536373839616263646566FB
:1053500000000000303132333435363738394142BD
:10536000434445460000000000F058F90544761C0F
:10537000307800287FF4ECAD19B02846BDE8F08FF6
:10538000620700D4062709F1070222F0070CFCE8A7
:105390000223E14603F000485FEA080C02D00FF256
:1053A000702C0DE05FEA045C02D50FF2682C07E078
:1053B0005FEAC47C02D00FF2602C01E0AFF2700C07
:1053C0004FF0FF3823F00043CDF850C065280CD0D3
:1053D00006DC452809D046281DD047283DD13DE0B0
:1053E000662818D067287ED138E00021112F01DB14
:1053F000112000E0781CCDE9000106A90EA8FFF7F6
:10540000EDFCDDE90F010E9A03910021009207F1F6
:10541000010A04914DE04FF000400097CDE90110E2
:1054200006A90EA8FFF7DAFCDDE90F0203920E9B36
:1054300011990022DDF80CA00093049211B9791C97
:1054400000EB010AB7EB0A0004D4C0F1FF3007F10A
:10545000010A0490AAEB0700019044E0012F00DA52
:1054600001270021112F01DD112000E03846CDE990
:10547000000106A90EA8FFF7B1FCDDE90F010E9AA5
:105480000391002104910092BA4621070CD403999C
:10549000514500DA8A46BAF1010F05DD009AAAF1FA
:1054A0000101515C302908D0B84202DA10F1040F32
:1054B00006DA0121CDE9011015E0AAF10101E9E7C1
:1054C000002805DC049901440491AAEB000102E0E4
:1054D000411C514500DD8A460499401A401C019048
:1054E0004FF000400290200704D40198504501DBA2
:1054F000CDF8048000208DF84F0002980DF14F0781
:10550000B0F1004F25D02B200E9002984FF00208EA
:1055100000280CDA404202902D200E9007E00A216C
:105520000298FBF7C5F93031029007F8011DB8F178
:105530000001A8F10108F2DC02980028EFD1791EE1
:105540000E980870307800F0200040F0450007F811
:10555000020D12A8C01B00F107081498007800B1D2
:10556000012000EB0A01019801EBE071059841442C
:10557000401A401E0590E00306D45B462146179A68
:10558000059800F05DF805441498007818B15A4663
:10559000179990476D1CE00324D55B462146179A66
:1055A000059800F04DF805441CE00498002807DB3E
:1055B000DDE90301884203DD0098405C179901E0B2
:1055C000179930205A469047049805F10105401C70
:1055D00004900198401E019004D12E205A4617993C
:1055E00090476D1CBAF10001AAF1010ADDDC05E06B
:1055F00017F8010B5A46179990476D1CB8F1000136
:10560000A8F10108F4DC5B462146179A0598ABE641
:105610002D0000002B000000200000002DE9F041CB
:10562000044600251E461746880404D405E0394682
:105630002020B0476D1C641EF9D52846BDE8F081D6
:105640002DE9F041044600251E469046C80301D5C9
:10565000302700E02027880404D505E0414638467D
:10566000B0476D1C641EF9D52846BDE8F0810A6874
:10567000531C0B601070704701F05EFAFEF7B0FF2C
:105680006F4EDFF8C081704C40F2DC5B7048002345
:105690005A1E6E49006801F035F8002865D0207860
:1056A00001280DD0607801280AD000210846FEF7B5
:1056B00069FF664DA87D012805D00021084652E00B
:1056C00000F0B4FDF5E7E8696169FBF7E7F806D398
:1056D0006069E96980F00040FBF7E0F857D25D4966
:1056E000E869FAF764FE01465B4A0020FEF70EF90E
:1056F0005A49E062884202DC5949884200D908468A
:10570000E062A869A169FBF7C9F806D3A069A96995
:1057100080F00040FBF7C2F83BD25249A869FAF783
:1057200046FE01464C4A0020FEF7F0F84B49206344
:10573000884202DC4A49884200D908460146206373
:105740002069FAF702FE0546E16AE068FAF7FDFD16
:105750002946FAF7F4FD80F000456060B4F90200D4
:10576000FAF7F7FF2946FEF7ADFE216A3E48491ECB
:1057700021620268002A0EDA00290CDCC8212162AD
:105780000221016000F0AEF80120E06109E0002094
:10579000B6E70020D2E7E069012802D002281CD039
:1057A0004AE0012540F2E6595F464FF4C87A316875
:1057B000C1F83C90D8F80000C76300F037FD052021
:1057C00000F054F86D1C5545F1DD00F081F8022021
:1057D000E061A068401CA06000E0A06803282BDB0B
:1057E00001254746B4F90200326800F2F951D1634D
:1057F0003968A0F2D3504042C86300F017FD64201E
:1058000000F034F86D1C0A2DECDDA06804280ED0E1
:105810003168C1F834B0D8F80020C2F838B0326826
:10582000C2F83CB0D8F80010C1F83CB0FEE700F078
:105830001BFCA06A00F0A2FC0020E06126E700004B
:10584000440300208403002018020020FC2E0020C6
:105850009800002000004843E82C00200000204170
:10586000000020C1000070425802002010B504461C
:1058700001F054F90128204603D0BDE8104000F0A3
:1058800007B9BDE81040FBF7D1BF002100EBC00015
:1058900001E0491C89B2B1EBC00FFAD37047000098
:1058A000064C0748FEF7A8F80223002204492068A6
:1058B00001F022F8642000F0EBF8F2E794000020F9
:1058C000582E00204FF47A74204600F0E1F8FBE7F0
:1058D00010B50124E0B20021FEF7CEF8641C082CBC
:1058E000F8DD10BD10B50124E0B20121FEF7C4F8C7
:1058F000641C082CF8DD10BDFCF754FBFEF798FE85
:10590000FEF7B6F9FEF732F9FEF7FEF8FEF754FAA5
:10591000FEF772FAFEF7DAFAFEF74CFBFEF766FBCB
:10592000FEF780FBFEF724FBFBF7D0F9FEF754F9F6
:1059300000F0B5F8184D194E194C4FF480774FF41C
:10594000FA7860680028206809D0401E20602A6824
:105950004FF4B961D1633268D16310D011E0401CBB
:1059600020602A684FF4BE61D1633268D163282871
:1059700001D1012060603B4603220AA104E000201F
:1059800060603B46032209A10A48FDF727FC404618
:10599000FBF74CFFD5E70000440300208403002000
:1059A00000000020C7B0BDF800000000BAF3CDCB66
:1059B000000000008404002001460020842900D05B
:1059C000C81C704708B501F0B7F82A4DDFF8A08071
:1059D000DFF8A490DFF8A4A0DFF8A4B0294F05F108
:1059E0000C06A5F12004009001231A462649D8F898
:1059F000000000F087FE01231A461E49D9F8000076
:105A000000F080FE1B4901231A460C31DAF8000031
:105A100000F078FE1C4901231A460839DBF8000023
:105A200000F070FE2868A060A868E0606868FAF777
:105A3000FBFE4FF03332154BFAF7A4FDFAF707FFE0
:105A40002061F068606030682060FBF733F9FBF795
:105A5000B9FAA075386828B1064900230122203917
:105A600000F04AFF6421684600F0CCFCBCE700006F
:105A7000A00000203C2F0020940000209C0000206B
:105A8000A400002098000020640200203333F33F7C
:105A900010B500B9012000F08FFC002010BD10B53A
:105AA00000F068FD002010BD3EB504460D46B0F97B
:105AB0000800FFF781FF02A9CDE90001208A2B46EB
:105AC00082B2D4E9001000F0FDFF012801D00020CF
:105AD0003EBD02983EBD0000064C0748FBF7F2F9B8
